:1000000000308A002A290000FF00030E8301A100AE
:100010000A08A0008A010408A2007708A300780853
:10002000A4007908A5007A08A6007B08A70083131E
:1000300083128C308400801E1F288C1A32282208DC
:1000400084002308F7002408F8002508F900260892
:10005000FA002708FB0020088A00210E8300FF0E0B
:100060007F0E09008A110A1267280A108A100A11E5
:1000700082074234693465346E34763465346E34C4
:10008000693464346F34733420346134203446343A
:100090006C34653464347334213400348316580866
:1000A000F8015702031857285708F7006328F7018B
:1000B0000830D900D70DF70D580877020318F7005C
:1000C000F80DD90B5A2883128A110A127F28831639
:1000D000D60183128C1E6A281A088316D600560889
:1000E000523C031D77288312D8018A288316831275
:1000F00058088316D7003030D80083124E2877086E
:10010000D8005808D80A283E84008313831656085E
:10011000800083128C128A110A121F2883168813FA
:100120008312881783160813831208178316881200
:100130008312881683168601FF3083128600831689
:1001400088138312881383160813831208138316E7
:100150008812831288128A110A12A429D4308400CA
:10016000831300080319C1280630F800F701F70BC4
:10017000B728F80BB6287B30F700F70BBD28800BAB
:10018000B4288A110A12D628831653080F3C031C80
:10019000D72885015308831285008316881083129F
:1001A000881001308316D4008312AE288316831280
:1001B00000348316081383120813831688128312DF
:1001C000881283165308FF3CD4008601540883121A
:1001D0008600831688138312881783168813831268
:1001E00088138A110A12BC29831608138312081374
:1001F000831688128312881283165408FF3CD50098
:100200008601550883128600831608138312081787
:1002100083160813831208138A110A12C72983163A
:100220000813831208138316881283128812831608
:100230005408FF3CD50086015508831286008316BA
:1002400088128312881683168812831288128A11E4
:100250000A12D229840183131F3083050A308316C2
:100260009900A630980090308312980083161F14CE
:100270009F141F159F118312A801A901AA01AB01A8
:10028000AC01FF30AD00AE01AF00B001B101B20072
:10029000B300B400B501B601B700B801B900BA00A7
:1002A000BB00BC01BD00BE00BF00C001C101C20156
:1002B000C301C401C500C601C700C801C901CA0005
:1002C000CB00CC00CD01CE01CF00D001D100D200B7
:1002D000D300D401D500D600D700D8018316D101B0
:1002E0000030850086008800850183128501831611
:1002F0008601FF30831286008316880183128801ED
:100300008316D00150082F3C031C8D29A0305007C4
:10031000840083138001D00A8229C03083128B04A9
:1003200083168C16D2015208831235208316D20A06
:10033000F70083120C1E9A2999001430831652027A
:10034000031D932983128E288316D3018312C420A0
:100350008316D101D00150082F3C031CDD298810E1
:1003600083128814283083165007840083130008F2
:10037000D200D3008312D928013083165007283EBB
:10038000840083130008D300D4008312F4280230C1
:1003900083165007283E840083130008D300D4003E
:1003A00083120F2983165108D10AD200D300831279
:0E03B000C42003308316D007AB29A9296300AF
:02400E003A3F37
:00000001FF
;PIC16F877
