:1000000008308A0079280000FF00030E8301A10058
:100010000A08A0008A010408A2007708A300780853
:10002000A4007908A5007A08A6007B08A70083131E
:1000300083128B1E1D280B1936288C308400801EDD
:1000400023288C1A3928220884002308F700240862
:10005000F8002508F9002608FA002708FB00200808
:100060008A00210E8300FF0E7F0E09008A110A12FA
:10007000942A8A110A12AF280A108A100A118207DC
:100080000D340A3449346E3469347434693461345B
:100090006C3469347A3469346E34673420344634CD
:1000A0006C346534643473342034283476346534E5
:1000B000723420342534733429340D340A34003436
:1000C0000A108A100A11820730342E343534323443
:1000D0000034F701F8016C0803106D18F707F70CEE
:1000E000F80CED18F707F70CF80C6D19F707F70C7B
:1000F000F80CED19F707F70CF80C6D1AF707F70C69
:10010000F80CED1AF707F70CF80C6D1BF707F70C56
:10011000F80CED1BF707F70CF80C00340B138B13DE
:100120008B1B8F280130DE0081015908F700D91D93
:10013000A228073081018130840083130008C03970
:100140000F3880006400813084000008C0397704D3
:1001500080008B16C0308B040034DE010034EB01CC
:1001600083160811831208158C1EB4281A08EB0098
:10017000620BC8280230E2006308EC000330ED0097
:10018000692029307807840083136B088000902A47
:100190006208023C031DDB280330E2006308EC0028
:1001A0000330ED00692001307807293E8400831375
:1001B0006B088000902A6208033C031DED28E201D1
:1001C0006308EC000330ED00692002307807293E17
:1001D000840083136B088000902AE208031D902A94
:1001E0006B08F039403C031DFA286B080F39E30017
:1001F0000130E200EB08031D0A29EC01EC016C0858
:100200002F3C031C0A2929306C07840083138001CA
:10021000EC0AFF286B085A3C031D2829EC015B30CF
:100220000C1E10299900EC016C082F3C031C24299A
:1002300029306C07840083130008ED006D080C1E44
:100240001F299900EC0A14295D300C1E25299900FC
:100250006B087E3C031D2E295D08E0006B08F83911
:10026000083C031D89296B080739EC006C08ED0078
:100270006D0803195129013A03195729033A031943
:100280005D29013A03196329073A03196929013ADB
:1002900003196F29033A03197529013A03197B29B8
:1002A0008229FF3083169900A23098008829813076
:1002B00083169900A230980088294030831699004F
:1002C000A23098008829813083169900A6309800C2
:1002D0008829403083169900A6309800882920305C
:1002E00083169900A6309800882915308316990046
:1002F000A630980088290A3083169900A630980005
:1003000088298312403083169900A23098008829EA
:1003100083126B08F039203C031D452A6B080F3906
:10032000EC006C08ED000B138B138B1B94298101DF
:100330006D080319C929013A0319D029033A031991
:10034000D729013A0319DE29073A0319E529013AA9
:100350000319EB29033A0319F229013A0319F92980
:100360000F3A0319002A013A0319072A033A03191D
:100370000E2A013A0319152A073A03191C2A013AD1
:100380000319232A033A03192A2A013A0319312AA5
:10039000382A0530D9000130DA00E530DD003F2A87
:1003A0000630D9000130DA007330DD003F2A053015
:1003B000D9000330DA00E630DD003F2A0730D900EB
:1003C0000130DA003930DD003F2A0530D900DA008B
:1003D000E530DD003F2A0630D9000330DA00733003
:1003E000DD003F2A0530D9000730DA00E730DD00B4
:1003F0003F2A0730D9000230DA003930DD003F2AC9
:100400000530D9000930DA00E630DD003F2A073038
:10041000D9000330DA003830DD003F2A0530D9003A
:100420001130DA00E630DD003F2A0730D900053010
:10043000DA003830DD003F2A0730D9000830DA0012
:100440003C30DD003F2A0730D9000930DA00363071
:10045000DD003F2A0730D9000E30DA003530DD00EC
:100460003F2A0730D9004C30DA003930DD003F2A0E
:100470000730D9004C30DA002630DD003F2A5A0818
:10048000DB005D08DC00C0308B046B08F039103CE9
:10049000031D902A6B080F3903196A2A013A0319C0
:1004A0006E2A033A0319722A013A0319762A073A87
:1004B00003197A2A013A03197E2A033A0319822A78
:1004C000013A0319862A0F3A03198A2A013A0319B5
:1004D0008C2A8E2A0830DF008E20902A0430DF001C
:1004E0008E20902A0730DF008E20902A0330DF0014
:1004F0008E20902A0630DF008E20902A0230DF0006
:100500008E20902A0530DF008E20902A0130DF00F7
:100510008E20902A8E20902AAD20902AAD20902AFD
:100520008C128A110A1223288316081183120811CB
:100530005E0BD32BDB0BD32B5F08013A0319B62AD2
:10054000033A0319D72A013A0319052B073A03196D
:100550001D2B013A0319332B033A03196C2B013A73
:100560000319A32B0F3A0319B92BCF2B2F30EB0014
:10057000EB006B08023C0318D32A29306B07F80004
:10058000FA010318FA0A03306B02293E8400831330
:100590000008EF007808840083137A1883176F0827
:1005A0008000EB03B92AA901AA01AB01D12BEB0111
:1005B000EB016B082C3C031CF32A29306B07F80075
:1005C000FA010318FA0A03306B07293E84008313EB
:1005D0000008EF007808840083137A1883176F08E7
:1005E0008000EB0AD92A29306B078400831380012D
:1005F00001306B07293E84008313800102306B07B2
:10060000293E840083138001D12BEB01EB016B08A1
:100610002F3C031C1C2B29306B07EC00ED01031849
:10062000ED0A6C08840083136D188317003084076B
:100630000310800CEB0A072BD12BEB01EB016B08AD
:100640002F3C031C322B29306B07EC00ED01031803
:10065000ED0A6C08840083136D1883170310800D56
:10066000EB0A1F2BD12B2F30EB0002306B02293EFF
:10067000840083130008EC0001306B02293E8400E3
:1006800083130008ED0029306B07840083130008F2
:10069000EE002F30EB006B08023C0318652B29306D
:1006A0006B07F800FA010318FA0A03306B02293EBF
:1006B000840083130008F2007808840083137A18FA
:1006C000831772088000EB034B2B6C08A9006D08A0
:1006D000AA006E08AB00D12BEB012908EC002A0818
:1006E000ED002B08EE00EB016B082C3C031C8E2B5D
:1006F00029306B07F800FA010318FA0A03306B0778
:10070000293E840083130008F200780884008313D4
:100710007A18831772088000EB0A742B29306B0754
:10072000840083136C08800001306B07293E84002D
:1007300083136D08800002306B07293E8400831309
:100740006E088000D12BEB01EB016B082F3C031CE2
:10075000B82B29306B07EC00ED010318ED0A6C088B
:10076000840083136D188317000C800CEB0AA52BF3
:10077000D12BEB01EB016B082F3C031CCE2B293056
:100780006B07EC00ED010318ED0A6C08840083137D
:100790006D188317000D800DEB0ABB2BD12BAD20FC
:1007A000D12B5A08DB000B118A110A122328831659
:1007B0008813831288178316081383120817831669
:1007C00088128312881683168601FF3083128600F2
:1007D0008316881383128813831608138312081351
:1007E00083168812831288128A150A120629693024
:1007F00084008313000803190E2C0630F800BF3064
:10080000F7006400F70B012CF80BFF2B7A30F70090
:10081000F70B082C0B2C6400800BFD2B8A110A129D
:10082000212C68080F3C031C252C8316850183129C
:100830006808850083168810831288100130E9004B
:10084000F72B83168810831288140034E101A80165
:100850008B1BA8178B136108EC000330ED00692097
:10086000A81B8B1729307807840083133F30800042
:10087000A8018B1BA8178B136108EC000330ED0057
:100880006920A81B8B1701307807293E8400831349
:100890008001A8018B1BA8178B136108EC000330A3
:1008A000ED006920A81B8B1702307807293E8400D1
:1008B000831380016108E10AE600E8001124A80121
:1008C0008B1BA8178B136108EC000330ED00692027
:1008D000A81B8B172930780784008313053080000C
:1008E000A8018B1BA8178B136108EC000330ED00E7
:1008F0006920A81B8B1701307807293E84008313D9
:100900008001A8018B1BA8178B136108EC00033032
:10091000ED006920A81B8B1702307807293E840060
:10092000831380016108E10AE600E8001124A801B0
:100930008B1BA8178B136108EC000330ED006920B6
:10094000A81B8B172930780784008313013080009F
:10095000A8018B1BA8178B136108EC000330ED0076
:100960006920A81B8B1701307807293E8400831368
:100970008001A8018B1BA8178B136108EC000330C2
:10098000ED006920A81B8B1702307807293E8400F0
:100990008313F03080006108E10AE600E8001124CA
:1009A000A8018B1BA8178B136108EC000330ED0026
:1009B0006920A81B8B1729307807840083138001D6
:1009C000A8018B1BA8178B136108EC000330ED0006
:1009D0006920A81B8B1701307807293E84008313F8
:1009E0008001A8018B1BA8178B136108EC00033052
:1009F000ED006920A81B8B1702307807293E840080
:100A00008313803080006108E10AE600E8001124C9
:100A1000A8018B1BA8178B136108EC000330ED00B5
:100A20006920A81B8B172930780784008313800165
:100A3000A8018B1BA8178B136108EC000330ED0095
:100A40006920A81B8B1701307807293E8400831387
:100A50003E308000A8018B1BA8178B136108EC00A7
:100A60000330ED006920A81B8B1702307807293E60
:100A70008400831380016108E10AE600E800112484
:100A8000A8018B1BA8178B136108EC000330ED0045
:100A90006920A81B8B1729307807840083138001F5
:100AA000A8018B1BA8178B136108EC000330ED0025
:100AB0006920A81B8B1701307807293E8400831317
:100AC0002A308000A8018B1BA8178B136108EC004B
:100AD0000330ED006920A81B8B1702307807293EF0
:100AE0008400831380016108E10AE600E800112414
:100AF000A8018B1BA8178B136108EC000330ED00D5
:100B00006920A81B8B172930780784008313800184
:100B1000A8018B1BA8178B136108EC000330ED00B4
:100B20006920A81B8B1701307807293E84008313A6
:100B30008001A8018B1BA8178B136108EC00033000
:100B4000ED006920A81B8B1702307807293E84002E
:100B5000831380016108E10AE600E8001124A8017E
:100B60008B1BA8178B136108EC000330ED00692084
:100B7000A81B8B172930780784008313F03080007E
:100B8000A8018B1BA8178B136108EC000330ED0044
:100B90006920A81B8B1701307807293E8400831336
:100BA000F0308000A8018B1BA8178B136108EC00A4
:100BB0000330ED006920A81B8B1702307807293E0F
:100BC0008400831380016108E10AE600E800112433
:100BD000A8018B1BA8178B136108EC000330ED00F4
:100BE0006920A81B8B172930780784008313903065
:100BF0008000A8018B1BA8178B136108EC00033041
:100C0000ED006920A81B8B1701307807293E84006E
:100C1000831390308000A8018B1BA8178B136108E9
:100C2000EC000330ED006920A81B8B170230780719
:100C3000293E8400831380016108E10AE600E80090
:100C40001124A8018B1BA8178B136108EC0003303B
:100C5000ED006920A81B8B172930780784008313C7
:100C600060308000A8018B1BA8178B136108EC0073
:100C70000330ED006920A81B8B1701307807293E4F
:100C80008400831360308000A8018B1BA8178B138E
:100C90006108EC000330ED006920A81B8B170230BF
:100CA0007807293E8400831380016108E10AE60089
:100CB000E8001124A8018B1BA8178B136108EC0016
:100CC0000330ED006920A81B8B17293078078400BA
:100CD00083138001A8018B1BA8178B136108EC00FC
:100CE0000330ED006920A81B8B1701307807293EDF
:100CF0008400831304308000A8018B1BA8178B137A
:100D00006108EC000330ED006920A81B8B1702304E
:100D10007807293E84008313043080006108E10ACB
:100D2000E600E8001124A8018B1BA8178B136108AB
:100D3000EC000330ED006920A81B8B1729307807E1
:100D4000840083138001A8018B1BA8178B136108F3
:100D5000EC000330ED006920A81B8B1701307807E9
:100D6000293E840083132A308000A8018B1BA8171A
:100D70008B136108EC000330ED006920A81B8B1772
:100D800002307807293E840083132A3080006108EE
:100D9000E10AE600E8001124A8018B1BA8178B13B9
:100DA0006108EC000330ED006920A81B8B17293087
:100DB0007807840083138001A8018B1BA8178B136D
:100DC0006108EC000330ED006920A81B8B1701308F
:100DD0007807293E840083132A308000A8018B1BEA
:100DE000A8178B136108EC000330ED006920A81BE5
:100DF0008B1702307807293E840083132A30800045
:100E00006108E10AE600E8001124A8018B1BA8177D
:100E10008B136108EC000330ED006920A81B8B17D1
:100E200029307807840083138001A8018B1BA81741
:100E30008B136108EC000330ED006920A81B8B17B1
:100E400001307807293E8400831310308000A80108
:100E50008B1BA8178B136108EC000330ED00692091
:100E6000A81B8B1702307807293E840083131030AB
:100E700080006108E10AE600E8001124A8018B1B4C
:100E8000A8178B136108EC000330ED006920A81B44
:100E90008B1729307807840083138001A8018B1BEE
:100EA000A8178B136108EC000330ED006920A81B24
:100EB0008B1701307807293E840083138001A80135
:100EC0008B1BA8178B136108EC000330ED00692021
:100ED000A81B8B1702307807293E840083138001FA
:100EE0006108E10AE600E8001124A8018B1BA8179D
:100EF0008B136108EC000330ED006920A81B8B17F1
:100F00002930780784008313BC308000A8018B1B34
:100F1000A8178B136108EC000330ED006920A81BB3
:100F20008B1701307807293E840083138001A801C4
:100F30008B1BA8178B136108EC000330ED006920B0
:100F4000A81B8B1702307807293E84008313BC301E
:080F500080008A150A1209292C
:10100000E101E60166082F3C031C76288316881050
:101010008312881429306607840083130008E700D0
:101020006708E800831608138312081383168812D2
:10103000831288126808FF3CE90083168601831238
:10104000690886008316881383128817831688130D
:101050008312881301306607293E84008313000839
:10106000E8006808E9008316081383120813831642
:101070008812831288126908FF3CEA0083168601F1
:1010800083126A08860083160813831208178316D2
:1010900008138312081302306607293E8400831365
:1010A0000008E8006808E900831608138312081393
:1010B00083168812831288126908FF3CEA0083169F
:1010C000860183126A0886008316881283128816A6
:1010D00083168812831288126108E10AE700E8008B
:1010E0008A1111248A150330E60702288A150A128C
:1010F0000F29840183131F3083050A30831699005A
:10110000A630980090308312980083161F149F1405
:101110001F159F1107308312D9004C30DA00DB0015
:101120002630DC00DD00DE01DF013230E000E101CD
:10113000E201E301E50100308316850086008800A6
:1011400085018312850183168601FF308312860094
:101150008316880183128801E40164082F3C031C74
:10116000B82829306407840083138001E40AAD287D
:10117000E201DE01DF013230E0002630DD008101D6
:101180000730D9005908F700D91DCF280730810151
:101190008130840083130008C0390F388000640058
:1011A000813084000008C039770480008B168316D4
:1011B0008C16C03083128B04E60166088A113C202D
:1011C0008A15E60AF70077080C1EE42899001A3001
:1011D0006602031DDD28E70167088A1160208A1571
:1011E00000380319F828E70A0C1EF4289900EC28A7
:1011F00029300C1EF92899000D300C1EFD2899008D
:101200000A300C1E012999008A11D72B8A158A11E0
:10121000262C8A15E8018A1111248A150028E50870
:10122000031D162983168811831288156508E50A9F
:10123000803C031D1F2983168811831288110E29F3
:02124000630049
:02400E003A3F37
:00000001FF
;PIC16F877
