:1000000000308A00392D0000FF00030E8301A1009B
:100010000A08A0008A010408A2007708A300780853
:10002000A4007908A5007A08A6007B08A70083131E
:1000300083128B1E1D280B1936288C308400801EDD
:1000400023288C1A3928220884002308F700240862
:10005000F8002508F9002608FA002708FB00200808
:100060008A00210E8300FF0E7F0E09008A110A12FA
:10007000DD2A8A110A12D9280A108A100A11820769
:100080000D340A3423342034503469346E346734E8
:100090002034743469346D3465346F347534743499
:1000A00020342D34203463346834653463346B3445
:1000B0002034643472346934763465347234733481
:1000C00023340D340A3400340A108A100A118207CE
:1000D0000D340A3449346E3469347434693461340B
:1000E0006C3469347A3469346E346734203446347D
:1000F0006C34653464347334203428347634653495
:10010000723420342534733429340D340A340034E5
:100110000A108A100A11820730342E3435343234F2
:100120000034F701F8018316580803105918F7072F
:10013000F70CF80CD918F707F70CF80C5919F70752
:10014000F70CF80CD919F707F70CF80C591AF70740
:10015000F70CF80CD91AF707F70CF80C591BF7072E
:10016000F70CF80CD91BF707F70CF80C83120034C6
:100170000B138B138B1BB9280130DE00810159084A
:10018000F700D91DCC28073081018130840083130A
:100190000008C0390F3880006400813084000008F6
:1001A000C039770480008B16C0308B040034DE0128
:1001B00000348316D7010811831208158C1EDE281F
:1001C0001A088316D7008312630BF8280230E30065
:1001D00064088316D8000330D90083129120293097
:1001E000780784008313831657088000D82A831267
:1001F0006308023C031D0F290330E30064088316E3
:10020000D8000330D9008312912001307807293EAD
:1002100084008313831657088000D82A831263084A
:10022000033C031D2529E30164088316D80003302D
:10023000D9008312912002307807293E840083136D
:10024000831657088000D82A8312E308031DD72A93
:1002500083165708F039403C031D352957080F39DC
:100260008312E4000130E3008316D708031D4529FB
:10027000D801D80158082F3C031C452929305807BC
:10028000840083138001D80A3A2957085A3C031D79
:100290006829D8015B3083120C1E4C299900831603
:1002A000D80158082F3C031C6229293058078400C4
:1002B00083130008D90083120C1E5C299900831651
:1002C000D80A51295D3083120C1E642999008316C7
:1002D00057087E3C031D702983125D08E0008316D9
:1002E0005708F839083C031DCB2957080739D800AF
:1002F0005808D9005908831203199429013A03199F
:100300009A29033A0319A029013A0319A629073AA1
:100310000319AC29013A0319B229033A0319B82980
:10032000013A0319BE29C529FF3083169900A2306E
:100330009800CB29813083169900A2309800CB29F0
:10034000403083169900A2309800CB298130831663
:100350009900A6309800CB29403083169900A6302A
:100360009800CB29203083169900A6309800CB291D
:10037000153083169900A6309800CB290A308316D1
:100380009900A6309800CB2983124030831699003B
:10039000A2309800CB295708F039203C031D8B2A46
:1003A00057080F39D8005808D90083120B138B1344
:1003B0008B1BD729810183165908831203190E2A32
:1003C000013A0319152A033A03191C2A013A0319A1
:1003D000232A073A03192A2A013A0319302A033A31
:1003E0000319372A013A03193E2A0F3A0319452AFD
:1003F000013A03194C2A033A0319532A013A031903
:100400005A2A073A0319612A013A0319682A033A5A
:1004100003196F2A013A0319762A7D2A0530D9007B
:100420000130DA00E530DD00842A0630D9000130E1
:10043000DA007330DD00842A0530D9000330DA0099
:10044000E630DD00842A0730D9000130DA00393087
:10045000DD00842A0530D900DA00E530DD00842A89
:100460000630D9000330DA007330DD00842A05300D
:10047000D9000730DA00E730DD00842A0730D900E0
:100480000230DA003930DD00842A0530D900093025
:10049000DA00E630DD00842A0730D9000330DA00C4
:1004A0003830DD00842A0530D9001130DA00E6301A
:1004B000DD00842A0730D9000530DA003830DD004D
:1004C000842A0730D9000830DA003C30DD00842A65
:1004D0000730D9000930DA003630DD00842A0730D1
:1004E000D9000E30DA003530DD00842A0730D9001B
:1004F0004C30DA003930DD00842A0730D9004C3026
:10050000DA002630DD00842A5A08DB005D08DC00B2
:10051000C0308B0483165708F039103C031DD82ACD
:1005200057080F3983120319B12A013A0319B52A62
:10053000033A0319B92A013A0319BD2A073A0319E4
:10054000C12A013A0319C52A033A0319C92A013AF3
:100550000319CD2A0F3A0319D12A013A0319D32AD4
:10056000D52A0830DF00B820D72A0430DF00B820B1
:10057000D72A0730DF00B820D72A0330DF00B820A1
:10058000D72A0630DF00B820D72A0230DF00B82093
:10059000D72A0530DF00B820D72A0130DF00B82085
:1005A000D72AB820D72AD720D72AD720D72A8316E8
:1005B00083128C128A110A122328831608118312BF
:1005C0000811DC0B022B3F300C1EE42A99005D0859
:1005D000DC006008E003003A031D022B8316D701FC
:1005E000570883123C208316D70AF70083120C1E8B
:1005F000F72A9900233083165702031DF02A8A0137
:10060000831200285E0B672CDB0B672C5F08013A16
:100610000319202B033A0319472B013A03197B2BAB
:10062000073A0319952B013A0319AD2B033A031925
:10063000F02B013A0319332C0F3A03194B2C632C7E
:100640002F308316D700D7005708023C0318422BDF
:1006500029305707F800FA010318FA0A7808D80079
:100660007A08D90003305702293E8400831300081A
:10067000DB00580884008313591883175B08800037
:10068000D703242B8312A901AA01AB01652C831681
:10069000D701D70157082C3C031C682B293057077A
:1006A000F800FA010318FA0A7808D8007A08D90085
:1006B00003305707293E840083130008DB005808E5
:1006C00084008313591883175B088000D70A4A2BCC
:1006D0002930570784008313800101305707293ED2
:1006E00084008313800102305707293E840083135E
:1006F00080018312652C8316D701D70157082F3C40
:10070000031C932B29305707D800D9010318D90AA5
:100710005808840083135918831700308407031086
:10072000800CD70A7E2B8312652C8316D701D70144
:1007300057082F3C031CAB2B29305707D800D90191
:100740000318D90A58088400831359188317031013
:10075000800DD70A982B8312652C2F308316D70073
:1007600002305702293E840083130008D80001306C
:100770005702293E840083130008D9002930570707
:10078000840083130008DA002F30D7005708023C9A
:100790000318E42B29305707F800FA010318FA0A66
:1007A0007808DB007A08DC0003305702293E840019
:1007B00083130008DE005B08840083135C18831732
:1007C0005E088000D703C62B58088312A900831641
:1007D00059088312AA0083165A088312AB00652CAD
:1007E0008316D701831229088316D80083122A089A
:1007F0008316D90083122B088316DA00D701570815
:100800002C3C031C1D2C29305707F800FA01031853
:10081000FA0A7808DB007A08DC0003305707293E23
:10082000840083130008DE005B08840083135C18D7
:1008300083175E088000D70AFF2B293057078400F2
:1008400083135808800001305707293E8400831322
:100850005908800002305707293E840083135A0844
:1008600080008312652C8316D701D70157082F3CCF
:10087000031C492C29305707D800D9010318D90A7D
:1008800058088400831359188317000C800CD70A6A
:10089000362C8312652C8316D701D70157082F3CBD
:1008A000031C612C29305707D800D9010318D90A35
:1008B00058088400831359188317000D800DD70A38
:1008C0004E2C8312652CD720652C5A08DB000B11A7
:1008D0008A110A1223288316881383128817831615
:1008E000081383120817831688128312881683163A
:1008F0008601FF30831286008316881383128813C3
:100900008316081383120813831688128312881221
:100910008A110A12CD2DD5308400831300080319E3
:10092000A22C0630F800BF30F7006400F70B952CBE
:10093000F80B932C7A30F700F70B9C2C9F2C64005B
:10094000800B912C8A110A12B72C831654080F3C85
:10095000031CB82C85015408831285008316881067
:100960008312881001308316D50083128B2C8316D6
:10097000831200348316D4018312A524E101831667
:10098000D20152082F3C031C352D88108312881485
:10099000293083165207840083130008D3005308BC
:1009A000D400081383120813831688128312881246
:1009B00083165408FF3CD500860155088312860033
:1009C000831688138312881783168813831288135B
:1009D000013083165207293E840083130008D40097
:1009E0005408D50008138312081383168812831243
:1009F000881283165508FF3CD600860156088312DC
:100A000086008316081383120817831608138312AF
:100A10000813023083165207293E8400831300080E
:100A2000D4005408D50008138312081383168812C3
:100A30008312881283165508FF3CD600860156089B
:100A400083128600831688128312881683168812F2
:100A5000831288126108E10A8316D300D40083123E
:100A6000A52403308316D207C12C83128A110A12DF
:100A7000D12D840183131F3083050A30831699001A
:100A8000A630980090308312980083161F149F148C
:100A90001F159F1107308312D9004C30DA00DB009C
:100AA0002630DC00DD00DE01DF013230E000E10154
:100AB000E201E301E4018316D101003085008600E4
:100AC000880085018312850183168601FF30831219
:100AD000860083168801831288018316D00150088E
:100AE0002F3C031C7A2D293050078400831380018A
:100AF000D00A6F2D8312E301DE01DF013230E00006
:100B00002630DD0081010730D9005908F700D91DD2
:100B1000922D073081018130840083130008C03991
:100B20000F3880006400813084000008C0397704E9
:100B300080008B1683168C16C03083128B048316AC
:100B4000D2015208831264208316D20AF70083125E
:100B50000C1EA82D99001A3083165202031DA12DD8
:100B6000D30153088312882000380319C02D83163F
:100B7000D30A83120C1EBA2D99008316B12D83124D
:100B800029300C1EC12D99000D300C1EC52D990069
:100B90000A300C1EC92D99006B2C8A1500288A1169
:100BA000BA2C8316D108031DD92D881183128815FC
:100BB00083165108D10A803C031DE22D881183124F
:0A0BC000881183168312D02D630004
:10100000E101A8018B1BA8178B1361088316D80078
:101010000330D9008A11831291208A15A81B8B17DF
:1010200029307807840083133F308000A8018B1B90
:10103000A8178B1361088316D8000330D9008A11D2
:10104000831291208A15A81B8B1701307807293E3F
:10105000840083138001A8018B1BA8178B136108E0
:101060008316D8000330D9008A11831291208A1583
:10107000A81B8B1702307807293E84008313800158
:101080006108E10A8316D200D4008A118312A524D4
:101090008A15A8018B1BA8178B1361088316D8002B
:1010A0000330D9008A11831291208A15A81B8B174F
:1010B000293078078400831305308000A8018B1B3A
:1010C000A8178B1361088316D8000330D9008A1142
:1010D000831291208A15A81B8B1701307807293EAF
:1010E000840083138001A8018B1BA8178B13610850
:1010F0008316D8000330D9008A11831291208A15F3
:10110000A81B8B1702307807293E840083138001C7
:101110006108E10A8316D200D4008A118312A52443
:101120008A15A8018B1BA8178B1361088316D8009A
:101130000330D9008A11831291208A15A81B8B17BE
:10114000293078078400831301308000A8018B1BAD
:10115000A8178B1361088316D8000330D9008A11B1
:10116000831291208A15A81B8B1701307807293E1E
:10117000840083138001A8018B1BA8178B136108BF
:101180008316D8000330D9008A11831291208A1562
:10119000A81B8B1702307807293E84008313F03098
:1011A00080006108E10A8316D200D4008A118312FC
:1011B000A5248A15A8018B1BA8178B136108831619
:1011C000D8000330D9008A11831291208A15A81BF8
:1011D0008B1729307807840083138001A8018B1BAB
:1011E000A8178B1361088316D8000330D9008A1121
:1011F000831291208A15A81B8B1701307807293E8E
:10120000840083138001A8018B1BA8178B1361082E
:101210008316D8000330D9008A11831291208A15D1
:10122000A81B8B1702307807293E84008313803077
:1012300080006108E10A8316D200D4008A1183126B
:10124000A5248A15A8018B1BA8178B136108831688
:10125000D8000330D9008A11831291208A15A81B67
:101260008B1729307807840083138001A8018B1B1A
:10127000A8178B1361088316D8000330D9008A1190
:10128000831291208A15A81B8B1701307807293EFD
:10129000840083133E308000A8018B1BA8178B139A
:1012A00061088316D8000330D9008A118312912077
:1012B0008A15A81B8B1702307807293E84008313F8
:1012C00080016108E10A8316D200D4008A118312DA
:1012D000A5248A15A8018B1BA8178B1361088316F8
:1012E000D8000330D9008A11831291208A15A81BD7
:1012F0008B1729307807840083138001A8018B1B8A
:10130000A8178B1361088316D8000330D9008A11FF
:10131000831291208A15A81B8B1701307807293E6C
:10132000840083132A308000A8018B1BA8178B131D
:1013300061088316D8000330D9008A1183129120E6
:101340008A15A81B8B1702307807293E8400831367
:1013500080016108E10A8316D200D4008A11831249
:10136000A5248A15A8018B1BA8178B136108831667
:10137000D8000330D9008A11831291208A15A81B46
:101380008B1729307807840083138001A8018B1BF9
:10139000A8178B1361088316D8000330D9008A116F
:1013A000831291208A15A81B8B1701307807293EDC
:1013B000840083138001A8018B1BA8178B1361087D
:1013C0008316D8000330D9008A11831291208A1520
:1013D000A81B8B1702307807293E840083138001F5
:1013E0006108E10A8316D200D4008A118312A52471
:1013F0008A15A8018B1BA8178B1361088316D800C8
:101400000330D9008A11831291208A15A81B8B17EB
:101410002930780784008313F0308000A8018B1BEB
:10142000A8178B1361088316D8000330D9008A11DE
:10143000831291208A15A81B8B1701307807293E4B
:1014400084008313F0308000A8018B1BA8178B1336
:1014500061088316D8000330D9008A1183129120C5
:101460008A15A81B8B1702307807293E8400831346
:1014700080016108E10A8316D200D4008A11831228
:10148000A5248A15A8018B1BA8178B136108831646
:10149000D8000330D9008A11831291208A15A81B25
:1014A0008B17293078078400831390308000A801BF
:1014B0008B1BA8178B1361088316D8000330D90043
:1014C0008A11831291208A15A81B8B170130780787
:1014D000293E8400831390308000A8018B1BA8173D
:1014E0008B1361088316D8000330D9008A11831248
:1014F00091208A15A81B8B1702307807293E84009B
:10150000831380016108E10A8316D200D4008A1196
:101510008312A5248A15A8018B1BA8178B136108B9
:101520008316D8000330D9008A11831291208A15BE
:10153000A81B8B1729307807840083136030800044
:10154000A8018B1BA8178B1361088316D8000330E2
:10155000D9008A11831291208A15A81B8B1701309C
:101560007807293E8400831360308000A8018B1B1C
:10157000A8178B1361088316D8000330D9008A118D
:10158000831291208A15A81B8B1702307807293EF9
:101590008400831380016108E10A8316D200D4001D
:1015A0008A118312A5248A15A8018B1BA8178B13F7
:1015B00061088316D8000330D9008A118312912064
:1015C0008A15A81B8B1729307807840083138001A4
:1015D000A8018B1BA8178B1361088316D800033052
:1015E000D9008A11831291208A15A81B8B1701300C
:1015F0007807293E8400831304308000A8018B1BE8
:10160000A8178B1361088316D8000330D9008A11FC
:10161000831291208A15A81B8B1702307807293E68
:1016200084008313043080006108E10A8316D2002D
:10163000D4008A118312A5248A15A8018B1BA81730
:101640008B1361088316D8000330D9008A118312E6
:1016500091208A15A81B8B172930780784008313E3
:101660008001A8018B1BA8178B1361088316D80073
:101670000330D9008A11831291208A15A81B8B1779
:1016800001307807293E840083132A308000A801A6
:101690008B1BA8178B1361088316D8000330D90061
:1016A0008A11831291208A15A81B8B1702307807A4
:1016B000293E840083132A3080006108E10A8316E2
:1016C000D200D4008A118312A5248A15A8018B1B8D
:1016D000A8178B1361088316D8000330D9008A112C
:1016E000831291208A15A81B8B1729307807840054
:1016F00083138001A8018B1BA8178B136108831625
:10170000D8000330D9008A11831291208A15A81BB2
:101710008B1701307807293E840083132A3080001C
:10172000A8018B1BA8178B1361088316D800033000
:10173000D9008A11831291208A15A81B8B170230B9
:101740007807293E840083132A3080006108E10A6B
:101750008316D200D4008A118312A5248A15A80109
:101760008B1BA8178B1361088316D8000330D90090
:101770008A11831291208A15A81B8B1729307807AC
:10178000840083138001A8018B1BA8178B136108A9
:101790008316D8000330D9008A11831291208A154C
:1017A000A81B8B1701307807293E84008313103063
:1017B0008000A8018B1BA8178B1361088316D80023
:1017C0000330D9008A11831291208A15A81B8B1728
:1017D00002307807293E84008313103080006108AE
:1017E000E10A8316D200D4008A118312A5248A1537
:1017F000A8018B1BA8178B1361088316D800033030
:10180000D9008A11831291208A15A81B8B172930C1
:101810007807840083138001A8018B1BA8178B1302
:1018200061088316D8000330D9008A1183129120F1
:101830008A15A81B8B1701307807293E8400831373
:101840008001A8018B1BA8178B1361088316D80091
:101850000330D9008A11831291208A15A81B8B1797
:1018600002307807293E8400831380016108E10A71
:101870008316D200D4008A118312A5248A15A801E8
:101880008B1BA8178B1361088316D8000330D9006F
:101890008A11831291208A15A81B8B17293078078B
:1018A00084008313BC308000A8018B1BA8178B1306
:1018B00061088316D8000330D9008A118312912061
:1018C0008A15A81B8B1701307807293E84008313E3
:1018D0008001A8018B1BA8178B1361088316D80001
:1018E0000330D9008A11831291208A15A81B8B1707
:1018F00002307807293E84008313BC3080008A11AF
:041900000A12CF2DCB
:02400E003A3F37
:00000001FF
;PIC16F877
