:1000000000308A00BA2C0000FF00030E8301A1001B
:100010000A08A0008A010408A2007708A300780853
:10002000A4007908A5007A08A6007B08A70083131E
:1000300083128B1E1D280B1936288C308400801EDD
:1000400023288C1A3928220884002308F700240862
:10005000F8002508F9002608FA002708FB00200808
:100060008A00210E8300FF0E7F0E09008A110A12FA
:10007000AD2A8A110A12B1280A108A100A118207C1
:100080000D340A3449346E3469347434693461345B
:100090006C3469347A3469346E34673420344634CD
:1000A0006C346534643473342034283476346534E5
:1000B000723420342534733429340D340A34003436
:1000C0000A108A100A11820730342E34343438343E
:1000D0000034F701F8018316570803105818F70782
:1000E000F70CF80CD818F707F70CF80C5819F707A5
:1000F000F70CF80CD819F707F70CF80C581AF70793
:10010000F70CF80CD81AF707F70CF80C581BF70780
:10011000F70CF80CD81BF707F70CF80C8312003417
:100120000B138B138B1B91280130DD0081015808C4
:10013000F700D81DA4280730810181308400831383
:100140000008C0390F388000640081308400000846
:10015000C039770480008B16C0308B040034DD0179
:1001600000348316D6010811831208158C1EB62898
:100170001A088316D6008312620BD0280230E200E0
:1001800063088316D7000330D80083126920283013
:10019000780784008313831656088000A82A8312E8
:1001A0006208023C031DE7280330E200630883165F
:1001B000D7000330D8008312692001307807283E29
:1001C00084008313831656088000A82A83126208CD
:1001D000033C031DFD28E20163088316D7000330AA
:1001E000D8008312692002307807283E84008313E8
:1001F000831656088000A82A8312E208031DA72A46
:1002000083165608F039403C031D0D2956080F3956
:100210008312E3000130E2008316D608031D1D2976
:10022000D701D70157082F3C031C1D292830570739
:10023000840083138001D70A122956085A3C031DF3
:100240004029D7015B3083120C1E242999008316A4
:10025000D70157082F3C031C3A2928305707840040
:1002600083130008D80083120C1E342999008316CA
:10027000D70A29295D3083120C1E3C299900831668
:100280005608F839083C031D9B2956080739D70042
:100290005708D8005808831203196429013A031932
:1002A0006A29033A03197029013A03197629073A92
:1002B00003197C29013A03198229033A0319882971
:1002C000013A03198E299529FF3083169900A2302F
:1002D00098009B29813083169900A23098009B29B1
:1002E000403083169900A23098009B2981308316F4
:1002F0009900A63098009B29403083169900A630BB
:1003000098009B29203083169900A63098009B29DD
:10031000153083169900A63098009B290A30831661
:100320009900A63098009B298312403083169900CB
:10033000A23098009B295608F039203C031D5B2A07
:1003400056080F39D7005708D80083120B138B13A8
:100350008B1BA72981018316580883120319DE29F4
:10036000013A0319E529033A0319EC29013A031963
:10037000F329073A0319FA29013A0319002A033A23
:100380000319072A013A03190E2A0F3A0319152AED
:10039000013A03191C2A033A0319232A013A0319C3
:1003A0002A2A073A0319312A013A0319382A033A4B
:1003B00003193F2A013A0319462A4D2A0530D8006D
:1003C0000130D900E530DC00542A0630D800013075
:1003D000D9007330DC00542A0530D8000330D9002E
:1003E000E630DC00542A0730D8000130D90039301B
:1003F000DC00542A0530D800D900E530DC00542A4E
:100400000630D8000330D9007330DC00542A0530A0
:10041000D8000730D900E730DC00542A0730D80074
:100420000230D9003930DC00542A0530D8000930B8
:10043000D900E630DC00542A0730D8000330D90058
:100440003830DC00542A0530D8001130D900E630AD
:10045000DC00542A0730D8000530D9003830DC00E1
:10046000542A0730D8000830D9003C30DC00542A28
:100470000730D8000930D9003630DC00542A073064
:10048000D8000E30D9003530DC00542A0730D800AF
:100490004C30D9003930DC00542A0730D8004C30B9
:1004A000D9002630DC00542A5908DA005C08DB0049
:1004B000C0308B0483165608F039103C031DA82A5F
:1004C00056080F3983120319812A013A0319852A24
:1004D000033A0319892A013A03198D2A073A0319A5
:1004E000912A013A0319952A033A0319992A013AE4
:1004F00003199D2A0F3A0319A12A013A0319A32AC5
:10050000A52A0830DE009020A72A0430DE009020C3
:10051000A72A0730DE009020A72A0330DE009020B3
:10052000A72A0630DE009020A72A0230DE009020A5
:10053000A72A0530DE009020A72A0130DE00902097
:10054000A72A9020A72AAF20A72AAF20A72A831680
:1005500083128C128A110A1223288316081183121F
:1005600008115D0B162CDA0B162C5E08013A0319E4
:10057000CF2A033A0319F62A013A03192A2B073A1C
:100580000319442B013A03195C2B033A03199F2BDF
:10059000013A0319E22B0F3A0319FA2B122C2F30D0
:1005A0008316D600D6005608023C0318F12A2830DC
:1005B0005607F800FA010318FA0A7808D7007A08F3
:1005C000D80003305602283E840083130008DA0066
:1005D000570884008313581883175A088000D603DD
:1005E000D32A8312A801A901AA01142C8316D601CB
:1005F000D60156082C3C031C172B28305607F80050
:10060000FA010318FA0A7808D7007A08D8000330EC
:100610005607283E840083130008DA005708840038
:100620008313581883175A088000D60AF92A2830ED
:10063000560784008313800101305607283E84004A
:100640008313800102305607283E84008313800103
:100650008312142C8316D601D60156082F3C031C96
:10066000422B28305607D700D8010318D80A57085C
:100670008400831358188317003084070310800CFC
:10068000D60A2D2B8312142C8316D601D6015608B8
:100690002F3C031C5A2B28305607D700D8010318CB
:1006A000D80A570884008313581883170310800D45
:1006B000D60A472B8312142C2F308316D600023013
:1006C0005602283E840083130008D70001305602EA
:1006D000283E840083130008D80028305607840081
:1006E00083130008D9002F30D6005608023C0318A7
:1006F000932B28305607F800FA010318FA0A7808F5
:10070000DA007A08DB0003305602283E84008313A7
:100710000008DD005A08840083135B1883175D0806
:100720008000D603752B57088312A800831658083B
:100730008312A900831659088312AA00142C831669
:10074000D601831228088316D7008312290883163E
:10075000D80083122A088316D900D60156082C3CEB
:10076000031CCC2B28305607F800FA010318FA0AAC
:100770007808DA007A08DB0003305607283E840048
:1007800083130008DD005A08840083135B18831765
:100790005D088000D60AAE2B2830560784008313EC
:1007A0005708800001305607283E840083135808FC
:1007B000800002305607283E8400831359088000C9
:1007C0008312142C8316D601D60156082F3C031C25
:1007D000F82B28305607D700D8010318D80A570835
:1007E0008400831358188317000C800CD60AE52B5D
:1007F0008312142C8316D601D60156082F3C031CF5
:10080000102C28305607D700D8010318D80A5708EB
:100810008400831358188317000D800DD60AFD2B12
:100820008312142CAF20142C5908DA000B118A11F2
:100830000A12232883168813831288178316081335
:10084000831208178316881283128816831686016E
:10085000FF30831286008316881383128813831651
:1008600008138312081383168812831288128A11C0
:100870000A127F2DD4308400831300080319512CF1
:100880000630F800BF30F7006400F70B442CF80B7B
:10089000422C7A30F700F70B4B2C4E2C6400800B67
:1008A000402C8A110A12662C831653080F3C031C35
:1008B000672C8501530883128500831688108312E4
:1008C000881001308316D40083123A2C83168312C9
:1008D00000348316081383120813831688128312B8
:1008E000881283165308FF3CD400860154088312F3
:1008F0008600831688138312881783168813831241
:1009000088138A110A12972D83160813831208136D
:10091000831688128312881283165408FF3CD50070
:100920008601550883128600831608138312081760
:1009300083160813831208138A110A12A22D831634
:1009400008138312081383168812831288128316E1
:100950005408FF3CD5008601550883128600831693
:1009600088128312881683168812831288128A11BD
:100970000A12AD2D840183131F3083050A308316BC
:100980009900A630980090308312980083161F14A7
:100990009F141F159F118312A801A901FF30AA00FF
:1009A000AB01AC01AD01AE01AF01B001B101B201CB
:1009B000B301B401B501B601B701B801B901BA017B
:1009C000BB01BC01BD01BE01BF01C001C101C2012B
:1009D000C301C401C501C601C701C801C901CA01DB
:1009E000CB01CC01CD01CE01CF01D001D101D2018B
:1009F000D301D401D501D601D7010730D8004C303E
:100A0000D900DA002630DB00DC00DD01DE01323007
:100A1000DF00E001E101E201E3018316D1010030D2
:100A20008500860088008501831285018316860172
:100A3000FF30831286008316880183128801831693
:100A4000D00150082F3C031C2C2DA03050078400EF
:100A500083138001D00A212D8312E201DD01DE0122
:100A60003230DF002630DC0081010730D800580822
:100A7000F700D81D442D0730810181308400831395
:100A80000008C0390F3880006400813084000008FD
:100A9000C039770480008B1683168C16C030831201
:100AA0008B048316D201520883123C208316D20A8B
:100AB000F70083120C1E5A2D99001A308316520229
:100AC000031D532DD30153088312602000380319EE
:100AD000722D8316D30A83120C1E6C2D9900831677
:100AE000632D831229300C1E732D99000D300C1EBE
:100AF000772D99000A300C1E7B2D99001A2C831635
:100B0000D30183125424E0018316D00150082F3CF6
:100B1000031CB82D881083128814283083165007C0
:100B2000840083130008D200D3008312692C0130A3
:100B300083165007283E840083130008D300D40096
:100B40008312842C023083165007283E84008313BE
:100B50000008D300D40083129F2C6008E00A83169B
:100B6000D200D3008312542403308316D007862D7D
:100B7000D108031DBF2D88118312881583165108D3
:100B8000D10A803C031DC82D881183128811831659
:060B90008312832D6300B7
:02400E003A3F37
:00000001FF
;PIC16F877
