:1000000008308A0079280000FF00030E8301A10058
:100010000A08A0008A010408A2007708A300780853
:10002000A4007908A5007A08A6007B08A70083131E
:1000300083128B1E1D280B1936288C308400801EDD
:1000400023288C1A3928220884002308F700240862
:10005000F8002508F9002608FA002708FB00200808
:100060008A00210E8300FF0E7F0E09008A110A12FA
:10007000BC2A8A110A12D7280A108A100A1182078C
:100080000D340A3423342034503469346E346734E8
:100090002034743469346D3465346F347534743499
:1000A00020342D34203463346834653463346B3445
:1000B0002034643472346934763465347234733481
:1000C00023340D340A3400340A108A100A118207CE
:1000D0000D340A3449346E3469347434693461340B
:1000E0006C3469347A3469346E346734203446347D
:1000F0006C34653464347334203428347634653495
:10010000723420342534733429340D340A340034E5
:100110000A108A100A11820730342E3435343234F2
:100120000034F701F8016C0803106D18F707F70C9D
:10013000F80CED18F707F70CF80C6D19F707F70C2A
:10014000F80CED19F707F70CF80C6D1AF707F70C18
:10015000F80CED1AF707F70CF80C6D1BF707F70C06
:10016000F80CED1BF707F70CF80C00340B138B138E
:100170008B1BB7280130DE0081015908F700D91D1B
:10018000CA28073081018130840083130008C039F8
:100190000F3880006400813084000008C039770483
:1001A00080008B16C0308B040034DE010034EB017C
:1001B00083160811831208158C1EDC281A08EB0020
:1001C000620BF0280230E2006308EC000330ED001F
:1001D000912029307807840083136B088000B82AA7
:1001E0006208023C031D03290330E2006308EC00AF
:1001F0000330ED00912001307807293E84008313FD
:100200006B088000B82A6208033C031D1529E2012F
:100210006308EC000330ED00912002307807293E9E
:10022000840083136B088000B82AE208031DB82AF3
:100230006B08F039403C031D22296B080F39E3009D
:100240000130E200EB08031D3229EC01EC016C08DF
:100250002F3C031C322929306C0784008313800152
:10026000EC0A27296B085A3C031D5029EC015B302E
:100270000C1E38299900EC016C082F3C031C4C29FA
:1002800029306C07840083130008ED006D080C1EF4
:1002900047299900EC0A3C295D300C1E4D29990034
:1002A0006B087E3C031D56295D08E0006B08F83999
:1002B000083C031DB1296B080739EC006C08ED0000
:1002C0006D0803197929013A03197F29033A0319A3
:1002D0008529013A03198B29073A03199129013A13
:1002E00003199729033A03199D29013A0319A329F0
:1002F000AA29FF3083169900A2309800B0298130D6
:1003000083169900A2309800B029403083169900D6
:10031000A2309800B029813083169900A630980049
:10032000B029403083169900A6309800B0292030BB
:1003300083169900A6309800B029153083169900CD
:10034000A6309800B0290A3083169900A63098008C
:10035000B0298312403083169900A2309800B0294A
:1003600083126B08F039203C031D6D2A6B080F398E
:10037000EC006C08ED000B138B138B1BBC29810167
:100380006D080319F129013A0319F829033A0319F1
:10039000FF29013A0319062A073A03190D2A013ADF
:1003A0000319132A033A03191A2A013A0319212AB5
:1003B0000F3A0319282A013A03192F2A033A03197D
:1003C000362A013A03193D2A073A0319442A013A09
:1003D00003194B2A033A0319522A013A0319592ADD
:1003E000602A0530D9000130DA00E530DD00672AE7
:1003F0000630D9000130DA007330DD00672A05309D
:10040000D9000330DA00E630DD00672A0730D90072
:100410000130DA003930DD00672A0530D900DA0012
:10042000E530DD00672A0630D9000330DA0073308A
:10043000DD00672A0530D9000730DA00E730DD003B
:10044000672A0730D9000230DA003930DD00672A28
:100450000530D9000930DA00E630DD00672A0730C0
:10046000D9000330DA003830DD00672A0530D900C2
:100470001130DA00E630DD00672A0730D900053098
:10048000DA003830DD00672A0730D9000830DA009A
:100490003C30DD00672A0730D9000930DA003630F9
:1004A000DD00672A0730D9000E30DA003530DD0074
:1004B000672A0730D9004C30DA003930DD00672A6E
:1004C0000730D9004C30DA002630DD00672A5A08A0
:1004D000DB005D08DC00C0308B046B08F039103C99
:1004E000031DB82A6B080F390319922A013A031920
:1004F000962A033A03199A2A013A03199E2A073ABF
:100500000319A22A013A0319A62A033A0319AA2AAF
:10051000013A0319AE2A0F3A0319B22A013A031914
:10052000B42AB62A0830DF00B620B82A0430DF002B
:10053000B620B82A0730DF00B620B82A0330DF0023
:10054000B620B82A0630DF00B620B82A0230DF0015
:10055000B620B82A0530DF00B620B82A0130DF0007
:10056000B620B82AB620B82AD520B82AD520B82A6D
:100570008C128A110A12232883160811831208117B
:10058000DC0BDC2A3F300C1EC32A99005D08DC001E
:100590006008E003003A031DDC2AEB016B083C20F5
:1005A000EB0AF70077080C1ED32A990023306B0260
:1005B000031DCE2A8A0100285E0B172CDB0B172C9B
:1005C0005F08013A0319FA2A033A03191B2B013A6F
:1005D0000319492B073A0319612B013A0319772BA9
:1005E000033A0319B02B013A0319E72B0F3A031909
:1005F000FD2B132C2F30EB00EB006B08023C031893
:10060000172B29306B07F800FA010318FA0A033098
:100610006B02293E840083130008EF0078088400F1
:1006200083137A1883176F088000EB03FD2AA90152
:10063000AA01AB01152CEB01EB016B082C3C031C50
:10064000372B29306B07F800FA010318FA0A033038
:100650006B07293E840083130008EF0078088400AC
:1006600083137A1883176F088000EB0A1D2B29303B
:100670006B0784008313800101306B07293E8400DF
:100680008313800102306B07293E840083138001AD
:10069000152CEB01EB016B082F3C031C602B293060
:1006A0006B07EC00ED010318ED0A6C08840083135E
:1006B0006D188317003084070310800CEB0A4B2B56
:1006C000152CEB01EB016B082F3C031C762B29301A
:1006D0006B07EC00ED010318ED0A6C08840083132E
:1006E0006D1883170310800DEB0A632B152C2F3028
:1006F000EB0002306B02293E840083130008EC00FB
:1007000001306B02293E840083130008ED0029307C
:100710006B07840083130008EE002F30EB006B089A
:10072000023C0318A92B29306B07F800FA010318C3
:10073000FA0A03306B02293E840083130008F2009A
:100740007808840083137A18831772088000EB03FB
:100750008F2B6C08A9006D08AA006E08AB00152C41
:10076000EB012908EC002A08ED002B08EE00EB0154
:100770006B082C3C031CD22B29306B07F800FA01C4
:100780000318FA0A03306B07293E8400831300081C
:10079000F2007808840083137A18831772088000A7
:1007A000EB0AB82B29306B07840083136C08800098
:1007B00001306B07293E840083136D0880000230EE
:1007C0006B07293E840083136E088000152CEB0113
:1007D000EB016B082F3C031CFC2B29306B07EC0052
:1007E000ED010318ED0A6C08840083136D1883175C
:1007F000000C800CEB0AE92B152CEB01EB016B08CC
:100800002F3C031C122C29306B07EC00ED01031860
:10081000ED0A6C08840083136D188317000D800D9A
:10082000EB0AFF2B152CD520152C5A08DB000B11D9
:100830008A110A12232883168813831288178316B5
:1008400008138312081783168812831288168316DA
:100850008601FF3083128600831688138312881363
:1008600083160813831208138316881283128812C2
:100870008A150A12062969308400831300080319B7
:10088000522C0630F800BF30F7006400F70B452CFF
:10089000F80B432C7A30F700F70B4C2C4F2C6400EC
:1008A000800B412C8A110A12652C68080F3C031C2E
:1008B000692C8316850183126808850083168810C9
:1008C000831288100130E9003B2C831688108312B4
:1008D00088140034E101A8018B1BA8178B13610851
:1008E000EC000330ED009120A81B8B17293078070E
:1008F000840083133F308000A8018B1BA8178B1343
:100900006108EC000330ED009120A81B8B1701302B
:100910007807293E840083138001A8018B1BA81748
:100920008B136108EC000330ED009120A81B8B179E
:1009300002307807293E8400831380016108E10AB0
:10094000E600E8005524A8018B1BA8178B1361084B
:10095000EC000330ED009120A81B8B17293078079D
:100960008400831305308000A8018B1BA8178B130C
:100970006108EC000330ED009120A81B8B170130BB
:100980007807293E840083138001A8018B1BA817D8
:100990008B136108EC000330ED009120A81B8B172E
:1009A00002307807293E8400831380016108E10A40
:1009B000E600E8005524A8018B1BA8178B136108DB
:1009C000EC000330ED009120A81B8B17293078072D
:1009D0008400831301308000A8018B1BA8178B13A0
:1009E0006108EC000330ED009120A81B8B1701304B
:1009F0007807293E840083138001A8018B1BA81768
:100A00008B136108EC000330ED009120A81B8B17BD
:100A100002307807293E84008313F030800061089B
:100A2000E10AE600E8005524A8018B1BA8178B13E8
:100A30006108EC000330ED009120A81B8B172930D2
:100A40007807840083138001A8018B1BA8178B13E0
:100A50006108EC000330ED009120A81B8B170130DA
:100A60007807293E840083138001A8018B1BA817F7
:100A70008B136108EC000330ED009120A81B8B174D
:100A800002307807293E840083138030800061089B
:100A9000E10AE600E8005524A8018B1BA8178B1378
:100AA0006108EC000330ED009120A81B8B17293062
:100AB0007807840083138001A8018B1BA8178B1370
:100AC0006108EC000330ED009120A81B8B1701306A
:100AD0007807293E840083133E308000A8018B1BD9
:100AE000A8178B136108EC000330ED009120A81BC0
:100AF0008B1702307807293E840083138001610838
:100B0000E10AE600E8005524A8018B1BA8178B1307
:100B10006108EC000330ED009120A81B8B172930F1
:100B20007807840083138001A8018B1BA8178B13FF
:100B30006108EC000330ED009120A81B8B170130F9
:100B40007807293E840083132A308000A8018B1B7C
:100B5000A8178B136108EC000330ED009120A81B4F
:100B60008B1702307807293E8400831380016108C7
:100B7000E10AE600E8005524A8018B1BA8178B1397
:100B80006108EC000330ED009120A81B8B17293081
:100B90007807840083138001A8018B1BA8178B138F
:100BA0006108EC000330ED009120A81B8B17013089
:100BB0007807293E840083138001A8018B1BA817A6
:100BC0008B136108EC000330ED009120A81B8B17FC
:100BD00002307807293E8400831380016108E10A0E
:100BE000E600E8005524A8018B1BA8178B136108A9
:100BF000EC000330ED009120A81B8B1729307807FB
:100C000084008313F0308000A8018B1BA8178B137E
:100C10006108EC000330ED009120A81B8B17013018
:100C20007807293E84008313F0308000A8018B1BD5
:100C3000A8178B136108EC000330ED009120A81B6E
:100C40008B1702307807293E8400831380016108E6
:100C5000E10AE600E8005524A8018B1BA8178B13B6
:100C60006108EC000330ED009120A81B8B172930A0
:100C700078078400831390308000A8018B1BA8178D
:100C80008B136108EC000330ED009120A81B8B173B
:100C900001307807293E8400831390308000A8013A
:100CA0008B1BA8178B136108EC000330ED0091201B
:100CB000A81B8B1702307807293E8400831380011C
:100CC0006108E10AE600E8005524A8018B1BA8177B
:100CD0008B136108EC000330ED009120A81B8B17EB
:100CE000293078078400831360308000A8018B1BB3
:100CF000A8178B136108EC000330ED009120A81BAE
:100D00008B1701307807293E840083136030800000
:100D1000A8018B1BA8178B136108EC000330ED00B2
:100D20009120A81B8B1702307807293E840083137B
:100D300080016108E10AE600E8005524A8018B1B48
:100D4000A8178B136108EC000330ED009120A81B5D
:100D50008B1729307807840083138001A8018B1B2F
:100D6000A8178B136108EC000330ED009120A81B3D
:100D70008B1701307807293E8400831304308000EC
:100D8000A8018B1BA8178B136108EC000330ED0042
:100D90009120A81B8B1702307807293E840083130B
:100DA000043080006108E10AE600E8005524A8014B
:100DB0008B1BA8178B136108EC000330ED0091200A
:100DC000A81B8B1729307807840083138001A801A2
:100DD0008B1BA8178B136108EC000330ED009120EA
:100DE000A81B8B1701307807293E840083132A3013
:100DF0008000A8018B1BA8178B136108EC0003303F
:100E0000ED009120A81B8B1702307807293E840043
:100E100083132A3080006108E10AE600E8005524C7
:100E2000A8018B1BA8178B136108EC000330ED00A1
:100E30009120A81B8B172930780784008313800129
:100E4000A8018B1BA8178B136108EC000330ED0081
:100E50009120A81B8B1701307807293E840083134B
:100E60002A308000A8018B1BA8178B136108EC00A7
:100E70000330ED009120A81B8B1702307807293E24
:100E8000840083132A3080006108E10AE600E8004C
:100E90005524A8018B1BA8178B136108EC000330A5
:100EA000ED009120A81B8B1729307807840083134D
:100EB0008001A8018B1BA8178B136108EC0003307D
:100EC000ED009120A81B8B1701307807293E840084
:100ED000831310308000A8018B1BA8178B136108A7
:100EE000EC000330ED009120A81B8B17023078072F
:100EF000293E84008313103080006108E10AE60077
:100F0000E8005524A8018B1BA8178B136108EC007F
:100F10000330ED009120A81B8B172930780784003F
:100F200083138001A8018B1BA8178B136108EC00A9
:100F30000330ED009120A81B8B1701307807293E64
:100F4000840083138001A8018B1BA8178B136108F1
:100F5000EC000330ED009120A81B8B1702307807BE
:100F6000293E8400831380016108E10AE600E8005D
:100F70005524A8018B1BA8178B136108EC000330C4
:100F8000ED009120A81B8B1729307807840083136C
:100F9000BC308000A8018B1BA8178B136108EC00E4
:100FA0000330ED009120A81B8B1701307807293EF4
:100FB000840083138001A8018B1BA8178B13610881
:100FC000EC000330ED009120A81B8B17023078074E
:100FD000293E84008313BC3080008A150A12092937
:10100000E101E60166082F3C031C76288316881050
:101010008312881429306607840083130008E700D0
:101020006708E800831608138312081383168812D2
:10103000831288126808FF3CE90083168601831238
:10104000690886008316881383128817831688130D
:101050008312881301306607293E84008313000839
:10106000E8006808E9008316081383120813831642
:101070008812831288126908FF3CEA0083168601F1
:1010800083126A08860083160813831208178316D2
:1010900008138312081302306607293E8400831365
:1010A0000008E8006808E900831608138312081393
:1010B00083168812831288126908FF3CEA0083169F
:1010C000860183126A0886008316881283128816A6
:1010D00083168812831288126108E10AE700E8008B
:1010E0008A1155248A150330E60702288A150A1248
:1010F0000F29840183131F3083050A30831699005A
:10110000A630980090308312980083161F149F1405
:101110001F159F1107308312D9004C30DA00DB0015
:101120002630DC00DD00DE01DF013230E000E101CD
:10113000E201E301E50100308316850086008800A6
:1011400085018312850183168601FF308312860094
:101150008316880183128801E40164082F3C031C74
:10116000B82829306407840083138001E40AAD287D
:10117000E201DE01DF013230E0002630DD008101D6
:101180000730D9005908F700D91DCF280730810151
:101190008130840083130008C0390F388000640058
:1011A000813084000008C039770480008B168316D4
:1011B0008C16C03083128B04E60166088A11642005
:1011C0008A15E60AF70077080C1EE42899001A3001
:1011D0006602031DDD28E70167088A1188208A1549
:1011E00000380319F828E70A0C1EF4289900EC28A7
:1011F00029300C1EF92899000D300C1EFD2899008D
:101200000A300C1E012999008A111B2C8A158A119B
:101210006A2C8A15E8018A1155248A150028E508E8
:10122000031D162983168811831288156508E50A9F
:10123000803C031D1F2983168811831288110E29F3
:02124000630049
:02400E003A3F37
:00000001FF
;PIC16F877
