:1000000000308A00092D0000FF00030E8301A100CB
:100010000A08A0008A010408A2007708A300780853
:10002000A4007908A5007A08A6007B08A70083131E
:1000300083128B1E1D280B1936288C308400801EDD
:1000400023288C1A3928220884002308F700240862
:10005000F8002508F9002608FA002708FB00200808
:100060008A00210E8300FF0E7F0E09008A110A12FA
:100070000A2B8A110A12DF280A108A100A11820735
:100080000D340A3423342034503469346E346734E8
:100090002034743469346D3465346F347534743499
:1000A00020342D34203463346834653463346B3445
:1000B0002034643472346934763465347234733481
:1000C00023340D340A3400340A108A100A118207CE
:1000D0000D340A3449346E3469347434693461340B
:1000E0006C3469347A3469346E346734203446347D
:1000F0006C34653464347334203428347634653495
:10010000723420342534733429340D340A340034E5
:100110000A108A100A11820730342E3434343834ED
:1001200000340B138B138B1B92280130DE008101EE
:100130005908F700D91DA5280730810181308400B6
:1001400083130008C0390F388000640081308400B8
:100150000008C039770480008B16C0308B0400344F
:10016000DE010034D8308400831300080319C92845
:100170000630F800BF30F7006400F70BBC28F80B1E
:10018000BA287A30F700F70BC328C6286400800B22
:10019000B8280034831657080F3C031CDD2885015E
:1001A0005708831285008316881083128810013047
:1001B0008316D8008312B22083168312003483166C
:1001C000D6010811831208158C1EE4281A0883161C
:1001D000D6008312E308031D9A2983165608473A6E
:1001E000831203192729053A03192B29013A031908
:1001F0002E29113A03193129133A03193429053AE2
:1002000003193729013A03193929033A03193B29FC
:100210000E3A03195B29013A03195F29033A0319BE
:100220006329013A03196729073A03196B29013A2F
:1002300003196F29033A03197329013A031977291E
:100240001F3A03197B29013A03198B299829033096
:10025000E300E20199290130E30099290230E3002B
:1002600099290430E30099295D08E000992991203B
:100270009929B02099298316D7015B3083120C1E6F
:100280003F2999008316D70157082F3C031C552995
:1002900029305707840083130008D80083120C1EEE
:1002A0004F2999008316D70A44295D3083120C1E0A
:1002B0005729990099290830DF00912099290430A5
:1002C000DF00912099290730DF0091209929033020
:1002D000DF00912099290630DF0091209929023012
:1002E000DF00912099290530DF0091209929013004
:1002F000DF00912099298316D701D70157082F3C99
:10030000031C892929305707840083138001D70AE9
:100310007E29831299293C300C1E8C299900610892
:100320000C1E902999003E300C1E942999009929A1
:100330009929062B630B5C2A83165608103C031C74
:10034000592A5608D70083120B138B138B1BA52930
:1003500081018316570883120319DC29013A031916
:10036000E329033A0319EA29013A0319F129073A63
:100370000319F829013A0319FE29033A0319052A3A
:10038000013A03190C2A0F3A0319132A013A0319E7
:100390001A2A033A0319212A013A0319282A073A8B
:1003A00003192F2A013A0319362A033A03193D2A61
:1003B000013A0319442A4B2A0530D9000130DA00EA
:1003C000E530DD00522A0630D9000130DA00733002
:1003D000DD00522A0530D9000330DA00E630DD00B6
:1003E000522A0730D9000130DA003930DD00522AB4
:1003F0000530D900DA00E530DD00522A0630D90098
:100400000330DA007330DD00522A0530D90007309E
:10041000DA00E730DD00522A0730D9000230DA0076
:100420003930DD00522A0530D9000930DA00E630D3
:10043000DD00522A0730D9000330DA003830DD0001
:10044000522A0530D9001130DA00E630DD00522A98
:100450000730D9000530DA003830DD00522A073085
:10046000D9000830DA003C30DD00522A0730D900CC
:100470000930DA003630DD00522A0730D9000E305C
:10048000DA003530DD00522A0730D9004C30DA006E
:100490003930DD00522A0730D9004C30DA002630DE
:1004A000DD00522A5A08DB005D08DC00C0308B04F6
:1004B00083168312E301062B6308023C031DBB2A4B
:1004C00083165608073C031CB82A5608D70057085D
:1004D00083120319812A013A0319872A033A03195F
:1004E0008D2A013A0319932A073A0319992A013AE6
:1004F00003199F2A033A0319A52A013A0319AB2AC3
:10050000B22AFF3083169900A2309800B82A8130B1
:1005100083169900A2309800B82A403083169900BB
:10052000A2309800B82A813083169900A63098002E
:10053000B82A403083169900A6309800B82A203097
:1005400083169900A6309800B82A153083169900B2
:10055000A6309800B82A0A3083169900A630980071
:10056000B82A8312403083169900A2309800B82A26
:100570008312E301062B6308033C031DF62A62087D
:100580002F3C0318EC2A8316D801A030D700D901DC
:10059000D90159082F3C031CE82A29305907F800D3
:1005A000FA010318FA0A7808DA007A08DB00590819
:1005B000570784008313581883170008DC005A0873
:1005C000840083135B1883175C088000D90AC92A4A
:1005D0008312E201E301F52A6208E20AA03E8400E8
:1005E00083138316560880008312062B6308043C8D
:1005F000031D062B831656080F3C031C042B5608BC
:10060000D7008312CA2083168312E3018C128A1149
:100610000A1223288316081183120811DC0B2F2BD2
:100620003F300C1E112B99005D08DC006008E003D0
:10063000003A031D2F2B8316D601560883123C2047
:100640008316D60AF70083120C1E242B9900233040
:1006500083165602031D1D2B8A01831200285E0B90
:10066000942CDB0B942C5F08013A03194D2B033AB1
:100670000319742B013A0319A82B073A0319C22B4B
:10068000013A0319DA2B033A03191D2C013A031915
:10069000602C0F3A0319782C902C2F308316D6003B
:1006A000D6005608023C03186F2B29305607F80075
:1006B000FA010318FA0A7808D7007A08D80003303C
:1006C0005602293E840083130008DA00570884008C
:1006D0008313581883175A088000D603512B8312AE
:1006E000A901AA01AB01922C8316D601D6015608A6
:1006F0002C3C031C952B29305607F800FA010318EF
:10070000FA0A7808D7007A08D80003305607293E3D
:10071000840083130008DA005708840083135818F4
:1007200083175A088000D60A772B29305607840091
:100730008313800101305607293E84008313800112
:1007400002305607293E8400831380018312922CC5
:100750008316D601D60156082F3C031CC02B293026
:100760005607D700D8010318D80A57088400831306
:1007700058188317003084070310800CD60AAB2B5F
:100780008312922C8316D601D60156082F3C031CE7
:10079000D82B29305607D700D8010318D80A570894
:1007A00084008313581883170310800DD60AC52BB5
:1007B0008312922C2F308316D60002305602293E27
:1007C000840083130008D70001305602293E8400BC
:1007D00083130008D80029305607840083130008CB
:1007E000D9002F30D6005608023C0318112C2930AE
:1007F0005607F800FA010318FA0A7808DA007A08AE
:10080000DB0003305602293E840083130008DD001C
:100810005A08840083135B1883175D088000D60391
:10082000F32B57088312A900831658088312AA00D5
:10083000831659088312AB00922C8316D6018312BB
:1008400029088316D70083122A088316D80083123A
:100850002B088316D900D60156082C3C031C4A2CC1
:1008600029305607F800FA010318FA0A7808DA0066
:100870007A08DB0003305607293E84008313000802
:10088000DD005A08840083135B1883175D0880001D
:10089000D60A2C2C29305607840083135708800071
:1008A00001305607293E8400831358088000023027
:1008B0005607293E84008313590880008312922C26
:1008C0008316D601D60156082F3C031C762C2930FE
:1008D0005607D700D8010318D80A57088400831395
:1008E00058188317000C800CD60A632C8312922CA4
:1008F0008316D601D60156082F3C031C8E2C2930B6
:100900005607D700D8010318D80A57088400831364
:1009100058188317000D800DD60A7B2C8312922C59
:10092000B020922C5A08DB000B118A110A122328DE
:1009300083168813831288178316081383120817E7
:10094000831688128312881683168601FF3083125D
:100950008600831688138312881383160813831264
:10096000081383168812831288128A110A12CD2D59
:1009700083160813831208138316881283128812B1
:1009800083165308FF3CD400860154088312860066
:10099000831688138312881783168813831288138B
:1009A0008A110A12EB2D831608138312081383167B
:1009B00088128312881283165408FF3CD5008601E2
:1009C00055088312860083160813831208178316AE
:1009D0000813831208138A110A12F62D83160813BE
:1009E0008312081383168812831288128316540800
:1009F000FF3CD500860155088312860083168812B5
:100A00008312881683168812831288128A110A129A
:100A1000012E840183131F30830540308316990013
:100A2000A230980090308312980083161F149F14F0
:100A30001F159F118312A901AA01FF30AB00AC0161
:100A4000AD01AE01AF01B001B101B201B301B4011A
:100A5000B501B601B701B801B901BA01BB01BC01CA
:100A6000BD01BE01BF01C001C101C201C301C4017A
:100A7000C501C601C701C801C901CA01CB01CC012A
:100A8000CD01CE01CF01D001D101D201D301D401DA
:100A9000D501D601D701D8010730D9004C30DA0092
:100AA000DB002630DC00DD00DE01DF013230E0005B
:100AB000E101E201E3018316D101003085008600E7
:100AC000880085018312850183168601FF30831219
:100AD000860083168801831288018316D00150088E
:100AE0002F3C031C7A2DA030500784008313800113
:100AF000D00A6F2D8312E301DE01DF013230E00006
:100B00002630DD0081010730D9005908F700D91DD2
:100B1000922D073081018130840083130008C03991
:100B20000F3880006400813084000008C0397704E9
:100B300080008B1683168C16C03083128B048316AC
:100B4000D2015208831264208316D20AF70083125E
:100B50000C1EA82D99001A3083165202031DA12DD8
:100B6000D30153088312882000380319C02D83163F
:100B7000D30A83120C1EBA2D99008316B12D83124D
:100B800029300C1EC12D99000D300C1EC52D990069
:100B90000A300C1EC92D9900982CA8018B1BA81790
:100BA0008B138316D7018312CA20A81B8B17E10170
:100BB0008316D00150082F3C031C152E8810831279
:100BC0008814293083165007840083130008D2004C
:100BD000D3008312B82C013083165007293E8400BD
:100BE00083130008D300D4008312D32C0230831661
:100BF0005007293E840083130008D300D4008312D9
:100C0000EE2C6108E10A8316D2008312A8018B1B27
:100C1000A8178B1383165208D7008312CA20A81B6B
:100C20008B1703308316D007DA2DD108031D1C2E35
:100C300088118312881583165108D10A803C031D40
:100C4000252E88118312881183168312D72D6300F5
:02400E003A3F37
:00000001FF
;PIC16F877
