:1000000000308A00452D0000FF00030E8301A1008F
:100010000A08A0008A010408A2007708A300780853
:10002000A4007908A5007A08A6007B08A70083131E
:1000300083128B1E1D280B1936288C308400801EDD
:1000400023288C1A3928220884002308F700240862
:10005000F8002508F9002608FA002708FB00200808
:100060008A00210E8300FF0E7F0E09008A110A12FA
:10007000B42A8A110A12B1280A108A100A118207BA
:100080000D340A3449346E3469347434693461345B
:100090006C3469347A3469346E34673420344634CD
:1000A0006C346534643473342034283476346534E5
:1000B000723420342534733429340D340A34003436
:1000C0000A108A100A11820730342E343534323443
:1000D0000034F701F8018316540803105518F70788
:1000E000F70CF80CD518F707F70CF80C5519F707AB
:1000F000F70CF80CD519F707F70CF80C551AF70799
:10010000F70CF80CD51AF707F70CF80C551BF70786
:10011000F70CF80CD51BF707F70CF80C831200341A
:100120000B138B138B1B91280130DB0081015808C6
:10013000F700D81DA4280730810181308400831383
:100140000008C0390F388000640081308400000846
:10015000C039770480008B16C0308B040034DB017B
:1001600000348316D3010811831208158C1EB6289B
:100170001A088316D3008312620BD0280230E200E3
:1001800061088316D4000330D5008312692028301B
:10019000780784008313831653088000AF2A8312E4
:1001A0006208023C031DE7280330E2006108831661
:1001B000D4000330D5008312692001307807283E2F
:1001C00084008313831653088000AF2A83126208C9
:1001D000033C031DFD28E20161088316D4000330AF
:1001E000D5008312692002307807283E84008313EB
:1001F000831653088000AF2A8312E208031DAE2A3B
:1002000083165308F039403C031D0D2953080F395C
:100210008312E1000130E2008316D308031D1D297B
:10022000D401D40154082F3C031C1D292830540745
:10023000840083138001D40A122953085A3C031DF9
:100240004029D4015B3083120C1E242999008316A7
:10025000D40154082F3C031C3A2928305407840049
:1002600083130008D50083120C1E342999008316CD
:10027000D40A29295D3083120C1E3C29990083166B
:1002800053087E3C031D482983125E08DF00831655
:100290005308F839083C031DA32953080739D40033
:1002A0005408D5005508831203196C29013A031923
:1002B0007229033A03197829013A03197E29073A6A
:1002C00003198429013A03198A29033A0319902949
:1002D000013A031996299D29FF3083169900A2300F
:1002E0009800A329813083169900A2309800A32991
:1002F000403083169900A2309800A32981308316DC
:100300009900A6309800A329403083169900A630A2
:100310009800A329203083169900A6309800A329BD
:10032000153083169900A6309800A3290A30831649
:100330009900A6309800A3298312403083169900B3
:10034000A2309800A3295308F039203C031D632AEA
:1003500053080F39D4005408D50083120B138B13A4
:100360008B1BAF2981018316550883120319E629D7
:10037000013A0319ED29033A0319F429013A031943
:10038000FB29073A0319022A013A0319082A033AFA
:1003900003190F2A013A0319162A0F3A03191D2AC5
:1003A000013A0319242A033A03192B2A013A0319A3
:1003B000322A073A0319392A013A0319402A033A23
:1003C0000319472A013A03194E2A552A0530D80045
:1003D0000130D900E530DE005C2A0630D80001305B
:1003E000D9007330DE005C2A0530D8000330D90014
:1003F000E630DE005C2A0730D8000130D900393001
:10040000DE005C2A0530D800D900E530DE005C2A29
:100410000630D8000330D9007330DE005C2A053086
:10042000D8000730D900E730DE005C2A0730D8005A
:100430000230D9003930DE005C2A0530D80009309E
:10044000D900E630DE005C2A0730D8000330D9003E
:100450003830DE005C2A0530D8001130D900E63093
:10046000DE005C2A0730D8000530D9003830DE00C5
:100470005C2A0730D8000830D9003C30DE005C2A06
:100480000730D8000930D9003630DE005C2A07304A
:10049000D8000E30D9003530DE005C2A0730D80095
:1004A0004C30D9003930DE005C2A0730D8004C309F
:1004B000D9002630DE005C2A5908DA005E08DD002B
:1004C000C0308B0483165308F039103C031DAF2A4B
:1004D00053080F3983120319892A013A03198C2A08
:1004E000033A0319902A013A0319942A073A031987
:1004F000982A013A03199C2A033A0319A02A013ABF
:100500000319A42A0F3A0319A82A013A0319AA2A9F
:10051000AC2ADC019020AE2A0130DC009020AE2A0B
:100520000230DC009020AE2A0330DC009020AE2A9E
:100530000430DC009020AE2A0530DC009020AE2A8A
:100540000630DC009020AE2A0730DC009020AE2A76
:100550009020AE2AAF20AE2AAF20AE2A8316831297
:100560008C128A110A12232883160811831208118B
:100570005B0B1D2CDA0B1D2C5C08073A0319D62ADD
:10058000023A0319FD2A063A0319312B023A0319DC
:100590004B2B073A0319632B023A0319A62B063A91
:1005A0000319E92B023A0319012C192C2F30831659
:1005B000D300D3005308023C0318F82A283053070D
:1005C000F800FA010318FA0A7808D4007A08D5006E
:1005D00003305302283E840083130008D7005408D8
:1005E000840083135518831757088000D303DA2A31
:1005F0008312A801A901AA011B2C8316D301D301E0
:1006000053082C3C031C1E2B28305307F800FA011A
:100610000318FA0A7808D4007A08D5000330530783
:10062000283E840083130008D700540884008313F5
:100630005518831757088000D30A002B283053071A
:1006400084008313800101305307283E8400831304
:10065000800102305307283E8400831380018312F7
:100660001B2C8316D301D30153082F3C031C492BA9
:1006700028305307D400D5010318D50A5408840044
:10068000831355188317003084070310800CD30A96
:10069000342B83121B2C8316D301D30153082F3C18
:1006A000031C612B28305307D400D5010318D50A49
:1006B000540884008313551883170310800DD30A40
:1006C0004E2B83121B2C2F308316D3000230530283
:1006D000283E840083130008D40001305302283ED2
:1006E000840083130008D500283053078400831347
:1006F0000008D6002F30D3005308023C03189A2B71
:1007000028305307F800FA010318FA0A7808D700CE
:100710007A08D80003305302283E8400831300086F
:10072000DA00570884008313581883175A0880008A
:10073000D3037C2B54088312A80083165508831218
:10074000A900831656088312AA001B2C8316D30116
:10075000831228088316D400831229088316D50033
:1007600083122A088316D600D30153082C3C031C9D
:10077000D32B28305307F800FA010318FA0A780837
:10078000D7007A08D80003305307283E840083132B
:100790000008DA00570884008313581883175A0892
:1007A0008000D30AB52B28305307840083135408E4
:1007B000800001305307283E8400831355088000D1
:1007C00002305307283E84008313560880008312AA
:1007D0001B2C8316D301D30153082F3C031CFF2B82
:1007E00028305307D400D5010318D50A54088400D3
:1007F000831355188317000C800CD30AEC2B83123B
:100800001B2C8316D301D30153082F3C031C172C38
:1008100028305307D400D5010318D50A54088400A2
:10082000831355188317000D800DD30A042C8312EF
:100830001B2CAF201B2C5908DA000B118A110A124D
:1008400023288316881383128817831608138312AC
:100850000817831688128312881683168601FF30C4
:100860008312860083168813831288138316081355
:100870008312081383168812831288128A110A12AF
:10088000CF2DE5013F308316A000A101A201053064
:10089000A300A401A5010130A600A701F030A80023
:1008A000A901AA018030AB00AC013E30AD00AE0121
:1008B000AF012A30B000B101B201B301B401F03090
:1008C000B500B600B7019030B800B900BA01603089
:1008D000BB00BC00BD01BE010430BF00C000C101AF
:1008E0002A30C200C300C401C500C600C7011030D1
:1008F000C800C900CA01CB01CC01BC30CD00CE017B
:10090000CF008312E50165082F3C031C9C2C283086
:100910006507F800FA010318FA0AA0306507840099
:1009200083130008E8007808840083137A1883177B
:1009300068088000E50A832C8A110A12D02D6830DD
:100940008400831300080319B62C0630F800BF306A
:10095000F7006400F70BA92CF80BA72C7A30F700EE
:10096000F70BB02CB32C6400800BA52C8A110A1253
:10097000C92C67080F3C031CCD2C831685018312FC
:100980006708850083168810831288100130E800FC
:100990009F2C83168810831288140034E001E5012F
:1009A00065082F3C031C422D83168810831288147F
:1009B00028306507840083130008E6006608E70016
:1009C0008316081383120813831688128312881261
:1009D0006708FF3CE80083168601831268088600DA
:1009E000831688138312881783168813831288133B
:1009F00001306507283E840083130008E70067087C
:100A0000E8008316081383120813831688128312D2
:100A100088126808FF3CE900831686018312690882
:100A2000860083160813831208178316081383128F
:100A3000081302306507283E840083130008E7008E
:100A40006708E800831608138312081383168812B8
:100A5000831288126808FF3CE9008316860183121E
:100A600069088600831688128312881683168812F6
:100A7000831288126008E00AE600E700B924033018
:100A8000E507D02C8A110A12D32D840183131F305D
:100A900083050A3083169900A6309800903083129F
:100AA000980083161F149F141F159F11073083127F
:100AB000D8004C30D900DA00DB01FF30DC002630F2
:100AC000DD00DE003230DF00E001E101E201E4019F
:100AD0000030831685008600880085018312850119
:100AE00083168601FF3083128600831688018312E5
:100AF0008801E30163082F3C031C852D2830630720
:100B0000840083138001E30A7A2DE201DB01FF30C8
:100B1000DC003230DF002630DE0081010730D800F3
:100B20005808F700D81D9D2D0730810181308400C1
:100B300083130008C0390F388000640081308400BE
:100B40000008C039770480008B1683168C16C030DD
:100B500083128B04E50165083C20E50AF70077085D
:100B60000C1EB02D99001A306502031DAB2DE60155
:100B70006608602000380319C22DE60A0C1EBE2D3F
:100B80009900B82D29300C1EC32D99000D300C1E74
:100B9000C72D99000A300C1ECB2D9900212C412C19
:100BA000E701B924CE2CE408031DDA2D8316881141
:100BB000831288156408E40A803C031DE32D831624
:0A0BC000881183128811D22D630002
:02400E003A3F37
:00000001FF
;PIC16F877
